{
  "_format": "hh-sol-artifact-1",
  "contractName": "Crowdsale",
  "sourceName": "contracts/Crowdsale.sol",
  "abi": [
    {
      "inputs": [
        {
          "internalType": "address",
          "name": "_creator",
          "type": "address"
        },
        {
          "internalType": "address",
          "name": "_token",
          "type": "address"
        },
        {
          "internalType": "uint256",
          "name": "_goal",
          "type": "uint256"
        },
        {
          "internalType": "uint256",
          "name": "_durationInDays",
          "type": "uint256"
        },
        {
          "internalType": "uint256",
          "name": "_tokenRate",
          "type": "uint256"
        }
      ],
      "stateMutability": "nonpayable",
      "type": "constructor"
    },
    {
      "inputs": [],
      "name": "ReentrancyGuardReentrantCall",
      "type": "error"
    },
    {
      "anonymous": false,
      "inputs": [
        {
          "indexed": true,
          "internalType": "address",
          "name": "backer",
          "type": "address"
        },
        {
          "indexed": false,
          "internalType": "uint256",
          "name": "amount",
          "type": "uint256"
        },
        {
          "indexed": false,
          "internalType": "uint256",
          "name": "tokensIssued",
          "type": "uint256"
        }
      ],
      "name": "Contribution",
      "type": "event"
    },
    {
      "anonymous": false,
      "inputs": [
        {
          "indexed": false,
          "internalType": "bool",
          "name": "goalReached",
          "type": "bool"
        },
        {
          "indexed": false,
          "internalType": "uint256",
          "name": "totalRaised",
          "type": "uint256"
        }
      ],
      "name": "Finalized",
      "type": "event"
    },
    {
      "anonymous": false,
      "inputs": [
        {
          "indexed": true,
          "internalType": "address",
          "name": "backer",
          "type": "address"
        },
        {
          "indexed": false,
          "internalType": "uint256",
          "name": "amount",
          "type": "uint256"
        }
      ],
      "name": "Refund",
      "type": "event"
    },
    {
      "anonymous": false,
      "inputs": [
        {
          "indexed": true,
          "internalType": "address",
          "name": "creator",
          "type": "address"
        },
        {
          "indexed": false,
          "internalType": "uint256",
          "name": "amount",
          "type": "uint256"
        }
      ],
      "name": "Withdrawal",
      "type": "event"
    },
    {
      "inputs": [],
      "name": "contribute",
      "outputs": [],
      "stateMutability": "payable",
      "type": "function"
    },
    {
      "inputs": [
        {
          "internalType": "address",
          "name": "",
          "type": "address"
        }
      ],
      "name": "contributions",
      "outputs": [
        {
          "internalType": "uint256",
          "name": "",
          "type": "uint256"
        }
      ],
      "stateMutability": "view",
      "type": "function"
    },
    {
      "inputs": [],
      "name": "creator",
      "outputs": [
        {
          "internalType": "address",
          "name": "",
          "type": "address"
        }
      ],
      "stateMutability": "view",
      "type": "function"
    },
    {
      "inputs": [],
      "name": "deadline",
      "outputs": [
        {
          "internalType": "uint256",
          "name": "",
          "type": "uint256"
        }
      ],
      "stateMutability": "view",
      "type": "function"
    },
    {
      "inputs": [],
      "name": "finalized",
      "outputs": [
        {
          "internalType": "bool",
          "name": "",
          "type": "bool"
        }
      ],
      "stateMutability": "view",
      "type": "function"
    },
    {
      "inputs": [],
      "name": "getStatus",
      "outputs": [
        {
          "internalType": "uint256",
          "name": "_totalRaised",
          "type": "uint256"
        },
        {
          "internalType": "uint256",
          "name": "_goal",
          "type": "uint256"
        },
        {
          "internalType": "uint256",
          "name": "_deadline",
          "type": "uint256"
        },
        {
          "internalType": "bool",
          "name": "_isGoalReached",
          "type": "bool"
        },
        {
          "internalType": "bool",
          "name": "_hasEnded",
          "type": "bool"
        }
      ],
      "stateMutability": "view",
      "type": "function"
    },
    {
      "inputs": [],
      "name": "goal",
      "outputs": [
        {
          "internalType": "uint256",
          "name": "",
          "type": "uint256"
        }
      ],
      "stateMutability": "view",
      "type": "function"
    },
    {
      "inputs": [],
      "name": "hasEnded",
      "outputs": [
        {
          "internalType": "bool",
          "name": "",
          "type": "bool"
        }
      ],
      "stateMutability": "view",
      "type": "function"
    },
    {
      "inputs": [],
      "name": "isGoalReached",
      "outputs": [
        {
          "internalType": "bool",
          "name": "",
          "type": "bool"
        }
      ],
      "stateMutability": "view",
      "type": "function"
    },
    {
      "inputs": [],
      "name": "refund",
      "outputs": [],
      "stateMutability": "nonpayable",
      "type": "function"
    },
    {
      "inputs": [],
      "name": "token",
      "outputs": [
        {
          "internalType": "contract ProjectToken",
          "name": "",
          "type": "address"
        }
      ],
      "stateMutability": "view",
      "type": "function"
    },
    {
      "inputs": [],
      "name": "tokenRate",
      "outputs": [
        {
          "internalType": "uint256",
          "name": "",
          "type": "uint256"
        }
      ],
      "stateMutability": "view",
      "type": "function"
    },
    {
      "inputs": [],
      "name": "totalRaised",
      "outputs": [
        {
          "internalType": "uint256",
          "name": "",
          "type": "uint256"
        }
      ],
      "stateMutability": "view",
      "type": "function"
    },
    {
      "inputs": [],
      "name": "withdraw",
      "outputs": [],
      "stateMutability": "nonpayable",
      "type": "function"
    }
  ],
  "bytecode": "0x6101206040523480156200001257600080fd5b5060405162000fc638038062000fc6833981016040819052620000359162000250565b60016000556001600160a01b038516620000965760405162461bcd60e51b815260206004820152601760248201527f496e76616c69642063726561746f72206164647265737300000000000000000060448201526064015b60405180910390fd5b6001600160a01b038416620000ee5760405162461bcd60e51b815260206004820152601560248201527f496e76616c696420746f6b656e2061646472657373000000000000000000000060448201526064016200008d565b60008311620001405760405162461bcd60e51b815260206004820152601b60248201527f476f616c206d7573742062652067726561746572207468616e2030000000000060448201526064016200008d565b60008211620001925760405162461bcd60e51b815260206004820152601f60248201527f4475726174696f6e206d7573742062652067726561746572207468616e20300060448201526064016200008d565b60008111620001ee5760405162461bcd60e51b815260206004820152602160248201527f546f6b656e2072617465206d7573742062652067726561746572207468616e206044820152600360fc1b60648201526084016200008d565b6001600160a01b03808616608052841660a05260c0839052620002158262015180620002b9565b620002219042620002d9565b60e0526101005250620002ef92505050565b80516001600160a01b03811681146200024b57600080fd5b919050565b600080600080600060a086880312156200026957600080fd5b620002748662000233565b9450620002846020870162000233565b6040870151606088015160809098015196999198509695945092505050565b634e487b7160e01b600052601160045260246000fd5b8082028115828204841417620002d357620002d3620002a3565b92915050565b80820180821115620002d357620002d3620002a3565b60805160a05160c05160e05161010051610c23620003a3600039600081816101870152610a3301526000818161014501528181610306015281816103e80152818161069d015281816106f40152818161072601526109270152600081816101d2015281816102c9015281816104500152818161067c015281816106c4015261078e01526000818161033f0152610a8101526000818160f4015281816103740152818161051601526105b00152610c236000f3fe6080604052600436106100dd5760003560e01c8063590e1ae31161007f578063d3eb6f6111610059578063d3eb6f61146102b7578063d7bb99ba146102ef578063ecb70fb7146102f7578063fc0c546a1461032d57600080fd5b8063590e1ae314610262578063b3f05b9714610277578063c5c4744c146102a157600080fd5b80633ccfd60b116100bb5780633ccfd60b146101a957806340193883146101c057806342e94c90146101f45780634e69d5601461022157600080fd5b806302d05d3f146100e257806329dcb0cf146101335780633171188414610175575b600080fd5b3480156100ee57600080fd5b506101167f000000000000000000000000000000000000000000000000000000000000000081565b6040516001600160a01b0390911681526020015b60405180910390f35b34801561013f57600080fd5b506101677f000000000000000000000000000000000000000000000000000000000000000081565b60405190815260200161012a565b34801561018157600080fd5b506101677f000000000000000000000000000000000000000000000000000000000000000081565b3480156101b557600080fd5b506101be610361565b005b3480156101cc57600080fd5b506101677f000000000000000000000000000000000000000000000000000000000000000081565b34801561020057600080fd5b5061016761020f366004610b55565b60036020526000908152604090205481565b34801561022d57600080fd5b5061023661066f565b60408051958652602086019490945292840191909152151560608301521515608082015260a00161012a565b34801561026e57600080fd5b506101be61071c565b34801561028357600080fd5b506002546102919060ff1681565b604051901515815260200161012a565b3480156102ad57600080fd5b5061016760015481565b3480156102c357600080fd5b506001547f00000000000000000000000000000000000000000000000000000000000000001115610291565b6101be61091d565b34801561030357600080fd5b507f0000000000000000000000000000000000000000000000000000000000000000421015610291565b34801561033957600080fd5b506101167f000000000000000000000000000000000000000000000000000000000000000081565b610369610b2b565b336001600160a01b037f000000000000000000000000000000000000000000000000000000000000000016146103e65760405162461bcd60e51b815260206004820152601960248201527f4f6e6c792063726561746f722063616e2077697468647261770000000000000060448201526064015b60405180910390fd5b7f000000000000000000000000000000000000000000000000000000000000000042101561044e5760405162461bcd60e51b815260206004820152601560248201527443616d706169676e207374696c6c2061637469766560581b60448201526064016103dd565b7f000000000000000000000000000000000000000000000000000000000000000060015410156104b35760405162461bcd60e51b815260206004820152601060248201526f11dbd85b081b9bdd081c995858da195960821b60448201526064016103dd565b60025460ff16156104fa5760405162461bcd60e51b8152602060048201526011602482015270105b1c9958591e48199a5b985b1a5e9959607a1b60448201526064016103dd565b6002805460ff1916600117905560405147906001600160a01b037f000000000000000000000000000000000000000000000000000000000000000016907f7fcf532c15f0a6db0bd6d0e038bea71d30d808c7d98cb3bf7268a95bf5081b65906105669084815260200190565b60405180910390a2600180546040805192835260208301919091527fdd0f555ae5273de37f96c52aa0ba4ae26fc23a0d7b0e2b8904ba8cf1636d6ce0910160405180910390a160007f00000000000000000000000000000000000000000000000000000000000000006001600160a01b03168260405160006040518083038185875af1925050503d8060008114610619576040519150601f19603f3d011682016040523d82523d6000602084013e61061e565b606091505b50509050806106615760405162461bcd60e51b815260206004820152600f60248201526e151c985b9cd9995c8819985a5b1959608a1b60448201526064016103dd565b505061066d6001600055565b565b60008060008060006001547f00000000000000000000000000000000000000000000000000000000000000007f00000000000000000000000000000000000000000000000000000000000000006106e86001547f0000000000000000000000000000000000000000000000000000000000000000111590565b929891975095509093507f000000000000000000000000000000000000000000000000000000000000000042101592509050565b610724610b2b565b7f000000000000000000000000000000000000000000000000000000000000000042101561078c5760405162461bcd60e51b815260206004820152601560248201527443616d706169676e207374696c6c2061637469766560581b60448201526064016103dd565b7f0000000000000000000000000000000000000000000000000000000000000000600154106107f05760405162461bcd60e51b815260206004820152601060248201526f11dbd85b081dd85cc81c995858da195960821b60448201526064016103dd565b3360009081526003602052604090205461084c5760405162461bcd60e51b815260206004820152601960248201527f4e6f20636f6e747269627574696f6e20746f20726566756e640000000000000060448201526064016103dd565b3360008181526003602090815260408083208054939055518281529192917fbb28353e4598c3b9199101a66e0989549b659a59a54d2c27fbb183f1932c8e6d910160405180910390a2604051600090339083908381818185875af1925050503d80600081146108d7576040519150601f19603f3d011682016040523d82523d6000602084013e6108dc565b606091505b50509050806106615760405162461bcd60e51b815260206004820152600d60248201526c1499599d5b990819985a5b1959609a1b60448201526064016103dd565b610925610b2b565b7f000000000000000000000000000000000000000000000000000000000000000042106109895760405162461bcd60e51b815260206004820152601260248201527110d85b5c185a59db881a185cc8195b99195960721b60448201526064016103dd565b600034116109e55760405162461bcd60e51b815260206004820152602360248201527f436f6e747269627574696f6e206d75737420626520677265617465722074686160448201526206e20360ec1b60648201526084016103dd565b3360009081526003602052604081208054349290610a04908490610b9b565b925050819055503460016000828254610a1d9190610b9b565b9091555060009050670de0b6b3a7640000610a587f000000000000000000000000000000000000000000000000000000000000000034610bb4565b610a629190610bcb565b6040516340c10f1960e01b8152336004820152602481018290529091507f00000000000000000000000000000000000000000000000000000000000000006001600160a01b0316906340c10f1990604401600060405180830381600087803b158015610acd57600080fd5b505af1158015610ae1573d6000803e3d6000fd5b505060408051348152602081018590523393507f5f7675b09617d2c9fa4fd13058ee5877a9538f626b0308816736e83748a4504092500160405180910390a25061066d6001600055565b600260005403610b4e57604051633ee5aeb560e01b815260040160405180910390fd5b6002600055565b600060208284031215610b6757600080fd5b81356001600160a01b0381168114610b7e57600080fd5b9392505050565b634e487b7160e01b600052601160045260246000fd5b80820180821115610bae57610bae610b85565b92915050565b8082028115828204841417610bae57610bae610b85565b600082610be857634e487b7160e01b600052601260045260246000fd5b50049056fea2646970667358221220067c8bc481a13f4e25d0bf8cd8e93e51a1c955de345f44fff96c70a461c1cb5364736f6c63430008140033",
  "linkReferences": {},
  "deployedLinkReferences": {}
}