{
  "_format": "hh-sol-artifact-1",
  "contractName": "LaunchpadFactory",
  "sourceName": "contracts/LaunchpadFactory.sol",
  "abi": [
    {
      "anonymous": false,
      "inputs": [
        {
          "indexed": true,
          "internalType": "address",
          "name": "campaignAddress",
          "type": "address"
        },
        {
          "indexed": true,
          "internalType": "address",
          "name": "creator",
          "type": "address"
        },
        {
          "indexed": true,
          "internalType": "address",
          "name": "tokenAddress",
          "type": "address"
        },
        {
          "indexed": false,
          "internalType": "string",
          "name": "tokenName",
          "type": "string"
        },
        {
          "indexed": false,
          "internalType": "string",
          "name": "tokenSymbol",
          "type": "string"
        },
        {
          "indexed": false,
          "internalType": "uint256",
          "name": "goal",
          "type": "uint256"
        },
        {
          "indexed": false,
          "internalType": "uint256",
          "name": "deadline",
          "type": "uint256"
        },
        {
          "indexed": false,
          "internalType": "uint256",
          "name": "tokenRate",
          "type": "uint256"
        }
      ],
      "name": "CampaignCreated",
      "type": "event"
    },
    {
      "inputs": [
        {
          "internalType": "uint256",
          "name": "",
          "type": "uint256"
        }
      ],
      "name": "campaigns",
      "outputs": [
        {
          "internalType": "address",
          "name": "",
          "type": "address"
        }
      ],
      "stateMutability": "view",
      "type": "function"
    },
    {
      "inputs": [
        {
          "internalType": "string",
          "name": "tokenName",
          "type": "string"
        },
        {
          "internalType": "string",
          "name": "tokenSymbol",
          "type": "string"
        },
        {
          "internalType": "uint256",
          "name": "goal",
          "type": "uint256"
        },
        {
          "internalType": "uint256",
          "name": "durationInDays",
          "type": "uint256"
        },
        {
          "internalType": "uint256",
          "name": "tokenRate",
          "type": "uint256"
        }
      ],
      "name": "createCampaign",
      "outputs": [
        {
          "internalType": "address",
          "name": "campaignAddress",
          "type": "address"
        }
      ],
      "stateMutability": "nonpayable",
      "type": "function"
    },
    {
      "inputs": [
        {
          "internalType": "uint256",
          "name": "index",
          "type": "uint256"
        }
      ],
      "name": "getCampaign",
      "outputs": [
        {
          "internalType": "address",
          "name": "",
          "type": "address"
        }
      ],
      "stateMutability": "view",
      "type": "function"
    },
    {
      "inputs": [],
      "name": "getCampaignCount",
      "outputs": [
        {
          "internalType": "uint256",
          "name": "",
          "type": "uint256"
        }
      ],
      "stateMutability": "view",
      "type": "function"
    },
    {
      "inputs": [],
      "name": "getCampaigns",
      "outputs": [
        {
          "internalType": "address[]",
          "name": "",
          "type": "address[]"
        }
      ],
      "stateMutability": "view",
      "type": "function"
    },
    {
      "inputs": [
        {
          "internalType": "address",
          "name": "",
          "type": "address"
        }
      ],
      "name": "isCampaign",
      "outputs": [
        {
          "internalType": "bool",
          "name": "",
          "type": "bool"
        }
      ],
      "stateMutability": "view",
      "type": "function"
    }
  ],
  "bytecode": "0x608060405234801561001057600080fd5b506125a5806100206000396000f3fe60806040523480156200001157600080fd5b50600436106200006a5760003560e01c8063141961bc146200006f5780635598f8cc14620000a35780636caa921814620000ba578063a6b0363314620000cc578063b5c8921914620000e5578063e2714e1b14620000fc575b600080fd5b6200008662000080366004620005e2565b62000133565b6040516001600160a01b0390911681526020015b60405180910390f35b62000086620000b4366004620005e2565b6200015e565b6000546040519081526020016200009a565b620000d6620001dd565b6040516200009a9190620005fc565b62000086620000f6366004620006f6565b62000241565b620001226200010d3660046200077c565b60016020526000908152604090205460ff1681565b60405190151581526020016200009a565b600081815481106200014457600080fd5b6000918252602090912001546001600160a01b0316905081565b600080548210620001ac5760405162461bcd60e51b8152602060048201526013602482015272496e646578206f7574206f6620626f756e647360681b60448201526064015b60405180910390fd5b60008281548110620001c257620001c2620007ae565b6000918252602090912001546001600160a01b031692915050565b606060008054806020026020016040519081016040528092919081815260200182805480156200023757602002820191906000526020600020905b81546001600160a01b0316815260019091019060200180831162000218575b5050505050905090565b6000808651116200028b5760405162461bcd60e51b8152602060048201526013602482015272151bdad95b881b985b59481c995c5d5a5c9959606a1b6044820152606401620001a3565b6000855111620002d65760405162461bcd60e51b8152602060048201526015602482015274151bdad95b881cde5b589bdb081c995c5d5a5c9959605a1b6044820152606401620001a3565b60008411620003285760405162461bcd60e51b815260206004820152601b60248201527f476f616c206d7573742062652067726561746572207468616e203000000000006044820152606401620001a3565b600083116200037a5760405162461bcd60e51b815260206004820152601f60248201527f4475726174696f6e206d7573742062652067726561746572207468616e2030006044820152606401620001a3565b60008211620003d65760405162461bcd60e51b815260206004820152602160248201527f546f6b656e2072617465206d7573742062652067726561746572207468616e206044820152600360fc1b6064820152608401620001a3565b6000868630604051620003e990620005c6565b620003f7939291906200080c565b604051809103906000f08015801562000414573d6000803e3d6000fd5b509050600033828787876040516200042c90620005d4565b6001600160a01b03958616815294909316602085015260408401919091526060830152608082015260a001604051809103906000f08015801562000474573d6000803e3d6000fd5b5060405163f2fde38b60e01b81526001600160a01b0380831660048301529192509083169063f2fde38b90602401600060405180830381600087803b158015620004bd57600080fd5b505af1158015620004d2573d6000803e3d6000fd5b505060008054600180820183557f290decd9548b62a8d60345a988386fc84ba6bc95484008f6362f93160ef3e56390910180546001600160a01b0319166001600160a01b0387169081179091558252602081905260408220805460ff19169091179055929450849291506200054d9050866201518062000864565b62000559904262000884565b9050826001600160a01b0316336001600160a01b0316856001600160a01b03167f93c2e5f87c6d986110433eaf25eb01b606d13f24148bcbbcdff854d2510b73008c8c8c878c604051620005b29594939291906200089a565b60405180910390a450505095945050505050565b610cc880620008e283390190565b610fc680620015aa83390190565b600060208284031215620005f557600080fd5b5035919050565b6020808252825182820181905260009190848201906040850190845b818110156200063f5783516001600160a01b03168352928401929184019160010162000618565b50909695505050505050565b634e487b7160e01b600052604160045260246000fd5b600082601f8301126200067357600080fd5b813567ffffffffffffffff808211156200069157620006916200064b565b604051601f8301601f19908116603f01168101908282118183101715620006bc57620006bc6200064b565b81604052838152866020858801011115620006d657600080fd5b836020870160208301376000602085830101528094505050505092915050565b600080600080600060a086880312156200070f57600080fd5b853567ffffffffffffffff808211156200072857600080fd5b6200073689838a0162000661565b965060208801359150808211156200074d57600080fd5b506200075c8882890162000661565b959895975050505060408401359360608101359360809091013592509050565b6000602082840312156200078f57600080fd5b81356001600160a01b0381168114620007a757600080fd5b9392505050565b634e487b7160e01b600052603260045260246000fd5b6000815180845260005b81811015620007ec57602081850181015186830182015201620007ce565b506000602082860101526020601f19601f83011685010191505092915050565b606081526000620008216060830186620007c4565b8281036020840152620008358186620007c4565b91505060018060a01b0383166040830152949350505050565b634e487b7160e01b600052601160045260246000fd5b80820281158282048414176200087e576200087e6200084e565b92915050565b808201808211156200087e576200087e6200084e565b60a081526000620008af60a0830188620007c4565b8281036020840152620008c38188620007c4565b6040840196909652505060608101929092526080909101529291505056fe60806040523480156200001157600080fd5b5060405162000cc838038062000cc883398101604081905262000034916200020b565b808383600362000045838262000327565b50600462000054828262000327565b5050506001600160a01b0381166200008757604051631e4fbdf760e01b8152600060048201526024015b60405180910390fd5b6200009281620000f4565b506001600160a01b038116620000eb5760405162461bcd60e51b815260206004820152601960248201527f496e76616c69642063726f776473616c6520616464726573730000000000000060448201526064016200007e565b505050620003f3565b600580546001600160a01b038381166001600160a01b0319831681179093556040519116919082907f8be0079c531659141344cd1fd0a4f28419497f9722a3daafe3b4186f6b6457e090600090a35050565b634e487b7160e01b600052604160045260246000fd5b600082601f8301126200016e57600080fd5b81516001600160401b03808211156200018b576200018b62000146565b604051601f8301601f19908116603f01168101908282118183101715620001b657620001b662000146565b81604052838152602092508683858801011115620001d357600080fd5b600091505b83821015620001f75785820183015181830184015290820190620001d8565b600093810190920192909252949350505050565b6000806000606084860312156200022157600080fd5b83516001600160401b03808211156200023957600080fd5b62000247878388016200015c565b945060208601519150808211156200025e57600080fd5b506200026d868287016200015c565b604086015190935090506001600160a01b03811681146200028d57600080fd5b809150509250925092565b600181811c90821680620002ad57607f821691505b602082108103620002ce57634e487b7160e01b600052602260045260246000fd5b50919050565b601f8211156200032257600081815260208120601f850160051c81016020861015620002fd5750805b601f850160051c820191505b818110156200031e5782815560010162000309565b5050505b505050565b81516001600160401b0381111562000343576200034362000146565b6200035b8162000354845462000298565b84620002d4565b602080601f8311600181146200039357600084156200037a5750858301515b600019600386901b1c1916600185901b1785556200031e565b600085815260208120601f198616915b82811015620003c457888601518255948401946001909101908401620003a3565b5085821015620003e35787850151600019600388901b60f8161c191681555b5050505050600190811b01905550565b6108c580620004036000396000f3fe608060405234801561001057600080fd5b50600436106100cf5760003560e01c806370a082311161008c57806395d89b411161006657806395d89b41146101aa578063a9059cbb146101b2578063dd62ed3e146101c5578063f2fde38b146101fe57600080fd5b806370a082311461015e578063715018a6146101875780638da5cb5b1461018f57600080fd5b806306fdde03146100d4578063095ea7b3146100f257806318160ddd1461011557806323b872dd14610127578063313ce5671461013a57806340c10f1914610149575b600080fd5b6100dc610211565b6040516100e9919061070f565b60405180910390f35b610105610100366004610779565b6102a3565b60405190151581526020016100e9565b6002545b6040519081526020016100e9565b6101056101353660046107a3565b6102bd565b604051601281526020016100e9565b61015c610157366004610779565b6102e1565b005b61011961016c3660046107df565b6001600160a01b031660009081526020819052604090205490565b61015c6102f7565b6005546040516001600160a01b0390911681526020016100e9565b6100dc61030b565b6101056101c0366004610779565b61031a565b6101196101d3366004610801565b6001600160a01b03918216600090815260016020908152604080832093909416825291909152205490565b61015c61020c3660046107df565b610328565b60606003805461022090610834565b80601f016020809104026020016040519081016040528092919081815260200182805461024c90610834565b80156102995780601f1061026e57610100808354040283529160200191610299565b820191906000526020600020905b81548152906001019060200180831161027c57829003601f168201915b5050505050905090565b6000336102b181858561036b565b60019150505b92915050565b6000336102cb85828561037d565b6102d68585856103fc565b506001949350505050565b6102e961045b565b6102f38282610488565b5050565b6102ff61045b565b61030960006104be565b565b60606004805461022090610834565b6000336102b18185856103fc565b61033061045b565b6001600160a01b03811661035f57604051631e4fbdf760e01b8152600060048201526024015b60405180910390fd5b610368816104be565b50565b6103788383836001610510565b505050565b6001600160a01b038381166000908152600160209081526040808320938616835292905220546000198110156103f657818110156103e757604051637dc7a0d960e11b81526001600160a01b03841660048201526024810182905260448101839052606401610356565b6103f684848484036000610510565b50505050565b6001600160a01b03831661042657604051634b637e8f60e11b815260006004820152602401610356565b6001600160a01b0382166104505760405163ec442f0560e01b815260006004820152602401610356565b6103788383836105e5565b6005546001600160a01b031633146103095760405163118cdaa760e01b8152336004820152602401610356565b6001600160a01b0382166104b25760405163ec442f0560e01b815260006004820152602401610356565b6102f3600083836105e5565b600580546001600160a01b038381166001600160a01b0319831681179093556040519116919082907f8be0079c531659141344cd1fd0a4f28419497f9722a3daafe3b4186f6b6457e090600090a35050565b6001600160a01b03841661053a5760405163e602df0560e01b815260006004820152602401610356565b6001600160a01b03831661056457604051634a1406b160e11b815260006004820152602401610356565b6001600160a01b03808516600090815260016020908152604080832093871683529290522082905580156103f657826001600160a01b0316846001600160a01b03167f8c5be1e5ebec7d5bd14f71427d1e84f3dd0314c0f7b2291e5b200ac8c7c3b925846040516105d791815260200190565b60405180910390a350505050565b6001600160a01b038316610610578060026000828254610605919061086e565b909155506106829050565b6001600160a01b038316600090815260208190526040902054818110156106635760405163391434e360e21b81526001600160a01b03851660048201526024810182905260448101839052606401610356565b6001600160a01b03841660009081526020819052604090209082900390555b6001600160a01b03821661069e576002805482900390556106bd565b6001600160a01b03821660009081526020819052604090208054820190555b816001600160a01b0316836001600160a01b03167fddf252ad1be2c89b69c2b068fc378daa952ba7f163c4a11628f55a4df523b3ef8360405161070291815260200190565b60405180910390a3505050565b600060208083528351808285015260005b8181101561073c57858101830151858201604001528201610720565b506000604082860101526040601f19601f8301168501019250505092915050565b80356001600160a01b038116811461077457600080fd5b919050565b6000806040838503121561078c57600080fd5b6107958361075d565b946020939093013593505050565b6000806000606084860312156107b857600080fd5b6107c18461075d565b92506107cf6020850161075d565b9150604084013590509250925092565b6000602082840312156107f157600080fd5b6107fa8261075d565b9392505050565b6000806040838503121561081457600080fd5b61081d8361075d565b915061082b6020840161075d565b90509250929050565b600181811c9082168061084857607f821691505b60208210810361086857634e487b7160e01b600052602260045260246000fd5b50919050565b808201808211156102b757634e487b7160e01b600052601160045260246000fdfea2646970667358221220c9704cda76a55c72e6a23b9270affcde0b77dea9aecb5a64b5e964b39ada2f2c64736f6c634300081400336101206040523480156200001257600080fd5b5060405162000fc638038062000fc6833981016040819052620000359162000250565b60016000556001600160a01b038516620000965760405162461bcd60e51b815260206004820152601760248201527f496e76616c69642063726561746f72206164647265737300000000000000000060448201526064015b60405180910390fd5b6001600160a01b038416620000ee5760405162461bcd60e51b815260206004820152601560248201527f496e76616c696420746f6b656e2061646472657373000000000000000000000060448201526064016200008d565b60008311620001405760405162461bcd60e51b815260206004820152601b60248201527f476f616c206d7573742062652067726561746572207468616e2030000000000060448201526064016200008d565b60008211620001925760405162461bcd60e51b815260206004820152601f60248201527f4475726174696f6e206d7573742062652067726561746572207468616e20300060448201526064016200008d565b60008111620001ee5760405162461bcd60e51b815260206004820152602160248201527f546f6b656e2072617465206d7573742062652067726561746572207468616e206044820152600360fc1b60648201526084016200008d565b6001600160a01b03808616608052841660a05260c0839052620002158262015180620002b9565b620002219042620002d9565b60e0526101005250620002ef92505050565b80516001600160a01b03811681146200024b57600080fd5b919050565b600080600080600060a086880312156200026957600080fd5b620002748662000233565b9450620002846020870162000233565b6040870151606088015160809098015196999198509695945092505050565b634e487b7160e01b600052601160045260246000fd5b8082028115828204841417620002d357620002d3620002a3565b92915050565b80820180821115620002d357620002d3620002a3565b60805160a05160c05160e05161010051610c23620003a3600039600081816101870152610a3301526000818161014501528181610306015281816103e80152818161069d015281816106f40152818161072601526109270152600081816101d2015281816102c9015281816104500152818161067c015281816106c4015261078e01526000818161033f0152610a8101526000818160f4015281816103740152818161051601526105b00152610c236000f3fe6080604052600436106100dd5760003560e01c8063590e1ae31161007f578063d3eb6f6111610059578063d3eb6f61146102b7578063d7bb99ba146102ef578063ecb70fb7146102f7578063fc0c546a1461032d57600080fd5b8063590e1ae314610262578063b3f05b9714610277578063c5c4744c146102a157600080fd5b80633ccfd60b116100bb5780633ccfd60b146101a957806340193883146101c057806342e94c90146101f45780634e69d5601461022157600080fd5b806302d05d3f146100e257806329dcb0cf146101335780633171188414610175575b600080fd5b3480156100ee57600080fd5b506101167f000000000000000000000000000000000000000000000000000000000000000081565b6040516001600160a01b0390911681526020015b60405180910390f35b34801561013f57600080fd5b506101677f000000000000000000000000000000000000000000000000000000000000000081565b60405190815260200161012a565b34801561018157600080fd5b506101677f000000000000000000000000000000000000000000000000000000000000000081565b3480156101b557600080fd5b506101be610361565b005b3480156101cc57600080fd5b506101677f000000000000000000000000000000000000000000000000000000000000000081565b34801561020057600080fd5b5061016761020f366004610b55565b60036020526000908152604090205481565b34801561022d57600080fd5b5061023661066f565b60408051958652602086019490945292840191909152151560608301521515608082015260a00161012a565b34801561026e57600080fd5b506101be61071c565b34801561028357600080fd5b506002546102919060ff1681565b604051901515815260200161012a565b3480156102ad57600080fd5b5061016760015481565b3480156102c357600080fd5b506001547f00000000000000000000000000000000000000000000000000000000000000001115610291565b6101be61091d565b34801561030357600080fd5b507f0000000000000000000000000000000000000000000000000000000000000000421015610291565b34801561033957600080fd5b506101167f000000000000000000000000000000000000000000000000000000000000000081565b610369610b2b565b336001600160a01b037f000000000000000000000000000000000000000000000000000000000000000016146103e65760405162461bcd60e51b815260206004820152601960248201527f4f6e6c792063726561746f722063616e2077697468647261770000000000000060448201526064015b60405180910390fd5b7f000000000000000000000000000000000000000000000000000000000000000042101561044e5760405162461bcd60e51b815260206004820152601560248201527443616d706169676e207374696c6c2061637469766560581b60448201526064016103dd565b7f000000000000000000000000000000000000000000000000000000000000000060015410156104b35760405162461bcd60e51b815260206004820152601060248201526f11dbd85b081b9bdd081c995858da195960821b60448201526064016103dd565b60025460ff16156104fa5760405162461bcd60e51b8152602060048201526011602482015270105b1c9958591e48199a5b985b1a5e9959607a1b60448201526064016103dd565b6002805460ff1916600117905560405147906001600160a01b037f000000000000000000000000000000000000000000000000000000000000000016907f7fcf532c15f0a6db0bd6d0e038bea71d30d808c7d98cb3bf7268a95bf5081b65906105669084815260200190565b60405180910390a2600180546040805192835260208301919091527fdd0f555ae5273de37f96c52aa0ba4ae26fc23a0d7b0e2b8904ba8cf1636d6ce0910160405180910390a160007f00000000000000000000000000000000000000000000000000000000000000006001600160a01b03168260405160006040518083038185875af1925050503d8060008114610619576040519150601f19603f3d011682016040523d82523d6000602084013e61061e565b606091505b50509050806106615760405162461bcd60e51b815260206004820152600f60248201526e151c985b9cd9995c8819985a5b1959608a1b60448201526064016103dd565b505061066d6001600055565b565b60008060008060006001547f00000000000000000000000000000000000000000000000000000000000000007f00000000000000000000000000000000000000000000000000000000000000006106e86001547f0000000000000000000000000000000000000000000000000000000000000000111590565b929891975095509093507f000000000000000000000000000000000000000000000000000000000000000042101592509050565b610724610b2b565b7f000000000000000000000000000000000000000000000000000000000000000042101561078c5760405162461bcd60e51b815260206004820152601560248201527443616d706169676e207374696c6c2061637469766560581b60448201526064016103dd565b7f0000000000000000000000000000000000000000000000000000000000000000600154106107f05760405162461bcd60e51b815260206004820152601060248201526f11dbd85b081dd85cc81c995858da195960821b60448201526064016103dd565b3360009081526003602052604090205461084c5760405162461bcd60e51b815260206004820152601960248201527f4e6f20636f6e747269627574696f6e20746f20726566756e640000000000000060448201526064016103dd565b3360008181526003602090815260408083208054939055518281529192917fbb28353e4598c3b9199101a66e0989549b659a59a54d2c27fbb183f1932c8e6d910160405180910390a2604051600090339083908381818185875af1925050503d80600081146108d7576040519150601f19603f3d011682016040523d82523d6000602084013e6108dc565b606091505b50509050806106615760405162461bcd60e51b815260206004820152600d60248201526c1499599d5b990819985a5b1959609a1b60448201526064016103dd565b610925610b2b565b7f000000000000000000000000000000000000000000000000000000000000000042106109895760405162461bcd60e51b815260206004820152601260248201527110d85b5c185a59db881a185cc8195b99195960721b60448201526064016103dd565b600034116109e55760405162461bcd60e51b815260206004820152602360248201527f436f6e747269627574696f6e206d75737420626520677265617465722074686160448201526206e20360ec1b60648201526084016103dd565b3360009081526003602052604081208054349290610a04908490610b9b565b925050819055503460016000828254610a1d9190610b9b565b9091555060009050670de0b6b3a7640000610a587f000000000000000000000000000000000000000000000000000000000000000034610bb4565b610a629190610bcb565b6040516340c10f1960e01b8152336004820152602481018290529091507f00000000000000000000000000000000000000000000000000000000000000006001600160a01b0316906340c10f1990604401600060405180830381600087803b158015610acd57600080fd5b505af1158015610ae1573d6000803e3d6000fd5b505060408051348152602081018590523393507f5f7675b09617d2c9fa4fd13058ee5877a9538f626b0308816736e83748a4504092500160405180910390a25061066d6001600055565b600260005403610b4e57604051633ee5aeb560e01b815260040160405180910390fd5b6002600055565b600060208284031215610b6757600080fd5b81356001600160a01b0381168114610b7e57600080fd5b9392505050565b634e487b7160e01b600052601160045260246000fd5b80820180821115610bae57610bae610b85565b92915050565b8082028115828204841417610bae57610bae610b85565b600082610be857634e487b7160e01b600052601260045260246000fd5b50049056fea2646970667358221220067c8bc481a13f4e25d0bf8cd8e93e51a1c955de345f44fff96c70a461c1cb5364736f6c63430008140033a2646970667358221220c4b235db116a611744675681023532a45f732cf85cc37cd9ebad3c094a92822464736f6c63430008140033",
  "linkReferences": {},
  "deployedLinkReferences": {}
}